{
  "contractName": "DappGameCom",
  "abi": [
    {
      "constant": true,
      "inputs": [
        {
          "name": "",
          "type": "uint256"
        }
      ],
      "name": "posts",
      "outputs": [
        {
          "name": "text",
          "type": "string"
        },
        {
          "name": "contentHash",
          "type": "string"
        }
      ],
      "payable": false,
      "stateMutability": "view",
      "type": "function"
    },
    {
      "constant": true,
      "inputs": [
        {
          "name": "",
          "type": "uint256"
        }
      ],
      "name": "commentFromAccount",
      "outputs": [
        {
          "name": "",
          "type": "address"
        }
      ],
      "payable": false,
      "stateMutability": "view",
      "type": "function"
    },
    {
      "constant": true,
      "inputs": [
        {
          "name": "",
          "type": "uint256"
        }
      ],
      "name": "games",
      "outputs": [
        {
          "name": "title",
          "type": "string"
        }
      ],
      "payable": false,
      "stateMutability": "view",
      "type": "function"
    },
    {
      "constant": true,
      "inputs": [
        {
          "name": "",
          "type": "uint256"
        }
      ],
      "name": "comments",
      "outputs": [
        {
          "name": "text",
          "type": "string"
        }
      ],
      "payable": false,
      "stateMutability": "view",
      "type": "function"
    },
    {
      "constant": true,
      "inputs": [
        {
          "name": "",
          "type": "address"
        },
        {
          "name": "",
          "type": "uint256"
        }
      ],
      "name": "postsFromAccount",
      "outputs": [
        {
          "name": "",
          "type": "uint256"
        }
      ],
      "payable": false,
      "stateMutability": "view",
      "type": "function"
    },
    {
      "constant": true,
      "inputs": [
        {
          "name": "",
          "type": "uint256"
        },
        {
          "name": "",
          "type": "uint256"
        }
      ],
      "name": "commentsFromPost",
      "outputs": [
        {
          "name": "",
          "type": "uint256"
        }
      ],
      "payable": false,
      "stateMutability": "view",
      "type": "function"
    },
    {
      "inputs": [],
      "payable": false,
      "stateMutability": "nonpayable",
      "type": "constructor"
    },
    {
      "anonymous": false,
      "inputs": [
        {
          "indexed": false,
          "name": "postId",
          "type": "uint256"
        },
        {
          "indexed": false,
          "name": "commentId",
          "type": "uint256"
        },
        {
          "indexed": false,
          "name": "owner",
          "type": "address"
        }
      ],
      "name": "NewPostAdded",
      "type": "event"
    },
    {
      "constant": true,
      "inputs": [],
      "name": "hasPosts",
      "outputs": [
        {
          "name": "_hasPosts",
          "type": "bool"
        }
      ],
      "payable": false,
      "stateMutability": "view",
      "type": "function"
    },
    {
      "constant": false,
      "inputs": [
        {
          "name": "_title",
          "type": "string"
        }
      ],
      "name": "newGame",
      "outputs": [],
      "payable": false,
      "stateMutability": "nonpayable",
      "type": "function"
    },
    {
      "constant": false,
      "inputs": [
        {
          "name": "_text",
          "type": "string"
        },
        {
          "name": "_contentHash",
          "type": "string"
        }
      ],
      "name": "newPost",
      "outputs": [],
      "payable": false,
      "stateMutability": "nonpayable",
      "type": "function"
    },
    {
      "constant": false,
      "inputs": [
        {
          "name": "_postId",
          "type": "uint256"
        },
        {
          "name": "_text",
          "type": "string"
        }
      ],
      "name": "newComment",
      "outputs": [],
      "payable": false,
      "stateMutability": "nonpayable",
      "type": "function"
    }
  ],
  "bytecode": "0x60806040523480156200001157600080fd5b506200004d60206040519081016040528060008152506020604051908101604052806000815250620000ce640100000000026401000000009004565b620000796000602060405190810160405280600081525062000246640100000000026401000000009004565b620000c86040805190810160405280601381526020017f5a6f6d62696520426174746c6567726f756e6400000000000000000000000000815250620003bc640100000000026401000000009004565b62000519565b620000d862000428565b6000604080519081016040528085815260200184815250915060016004839080600181540180825580915050906001820390600052602060002090600202016000909192909190915060008201518160000190805190602001906200013f92919062000442565b5060208201518160010190805190602001906200015e92919062000442565b5050500390506000803373ffffffffffffffffffffffffffffffffffffffff1673ffffffffffffffffffffffffffffffffffffffff1681526020019081526020016000208190806001815401808255809150509060018203906000526020600020016000909192909190915055507f7694d63d2563aeac8aad2b0a111ef1ba09b12b9748ef4ae1010584d554b87fea81600033604051808481526020018381526020018273ffffffffffffffffffffffffffffffffffffffff1673ffffffffffffffffffffffffffffffffffffffff168152602001935050505060405180910390a150505050565b62000250620004c9565b600060206040519081016040528084815250915060016005839080600181540180825580915050906001820390600052602060002001600090919290919091506000820151816000019080519060200190620002ae92919062000442565b50505003905060016000858152602001908152602001600020819080600181540180825580915050906001820390600052602060002001600090919290919091505550336002600083815260200190815260200160002060006101000a81548173ffffffffffffffffffffffffffffffffffffffff021916908373ffffffffffffffffffffffffffffffffffffffff1602179055507f7694d63d2563aeac8aad2b0a111ef1ba09b12b9748ef4ae1010584d554b87fea848233604051808481526020018381526020018273ffffffffffffffffffffffffffffffffffffffff1673ffffffffffffffffffffffffffffffffffffffff168152602001935050505060405180910390a150505050565b620003c6620004dd565b60206040519081016040528083815250905060038190806001815401808255809150509060018203906000526020600020016000909192909190915060008201518160000190805190602001906200042092919062000442565b505050505050565b604080519081016040528060608152602001606081525090565b828054600181600116156101000203166002900490600052602060002090601f016020900481019282601f106200048557805160ff1916838001178555620004b6565b82800160010185558215620004b6579182015b82811115620004b557825182559160200191906001019062000498565b5b509050620004c59190620004f1565b5090565b602060405190810160405280606081525090565b602060405190810160405280606081525090565b6200051691905b8082111562000512576000816000905550600101620004f8565b5090565b90565b610dc080620005296000396000f3006080604052600436106100a4576000357c0100000000000000000000000000000000000000000000000000000000900463ffffffff16806309787a2c146100a95780630b1e7f831461011c57806310fdf92a1461022e578063117a5b901461029b57806348bafd0e146103415780635a9cfac8146103aa5780638ebb4c15146103d95780639e28cf961461047f578063acdc2cde1461052e578063cd65eabe1461058f575b600080fd5b3480156100b557600080fd5b5061011a60048036038101908080359060200190929190803590602001908201803590602001908080601f01602080910402602001604051908101604052809392919081815260200183838082843782019150505050505091929192905050506105da565b005b34801561012857600080fd5b506101476004803603810190808035906020019092919050505061074c565b604051808060200180602001838103835285818151815260200191508051906020019080838360005b8381101561018b578082015181840152602081019050610170565b50505050905090810190601f1680156101b85780820380516001836020036101000a031916815260200191505b50838103825284818151815260200191508051906020019080838360005b838110156101f15780820151818401526020810190506101d6565b50505050905090810190601f16801561021e5780820380516001836020036101000a031916815260200191505b5094505050505060405180910390f35b34801561023a57600080fd5b50610259600480360381019080803590602001909291905050506108af565b604051808273ffffffffffffffffffffffffffffffffffffffff1673ffffffffffffffffffffffffffffffffffffffff16815260200191505060405180910390f35b3480156102a757600080fd5b506102c6600480360381019080803590602001909291905050506108e2565b6040518080602001828103825283818151815260200191508051906020019080838360005b838110156103065780820151818401526020810190506102eb565b50505050905090810190601f1680156103335780820380516001836020036101000a031916815260200191505b509250505060405180910390f35b34801561034d57600080fd5b506103a8600480360381019080803590602001908201803590602001908080601f01602080910402602001604051908101604052809392919081815260200183838082843782019150505050505091929192905050506109a3565b005b3480156103b657600080fd5b506103bf610a0b565b604051808215151515815260200191505060405180910390f35b3480156103e557600080fd5b5061040460048036038101908080359060200190929190505050610a1a565b6040518080602001828103825283818151815260200191508051906020019080838360005b83811015610444578082015181840152602081019050610429565b50505050905090810190601f1680156104715780820380516001836020036101000a031916815260200191505b509250505060405180910390f35b34801561048b57600080fd5b5061052c600480360381019080803590602001908201803590602001908080601f0160208091040260200160405190810160405280939291908181526020018383808284378201915050505050509192919290803590602001908201803590602001908080601f0160208091040260200160405190810160405280939291908181526020018383808284378201915050505050509192919290505050610adb565b005b34801561053a57600080fd5b50610579600480360381019080803573ffffffffffffffffffffffffffffffffffffffff16906020019092919080359060200190929190505050610c4d565b6040518082815260200191505060405180910390f35b34801561059b57600080fd5b506105c46004803603810190808035906020019092919080359060200190929190505050610c7d565b6040518082815260200191505060405180910390f35b6105e2610cad565b60006020604051908101604052808481525091506001600583908060018154018082558091505090600182039060005260206000200160009091929091909150600082015181600001908051906020019061063e929190610cc1565b50505003905060016000858152602001908152602001600020819080600181540180825580915050906001820390600052602060002001600090919290919091505550336002600083815260200190815260200160002060006101000a81548173ffffffffffffffffffffffffffffffffffffffff021916908373ffffffffffffffffffffffffffffffffffffffff1602179055507f7694d63d2563aeac8aad2b0a111ef1ba09b12b9748ef4ae1010584d554b87fea848233604051808481526020018381526020018273ffffffffffffffffffffffffffffffffffffffff1673ffffffffffffffffffffffffffffffffffffffff168152602001935050505060405180910390a150505050565b60048181548110151561075b57fe5b9060005260206000209060020201600091509050806000018054600181600116156101000203166002900480601f0160208091040260200160405190810160405280929190818152602001828054600181600116156101000203166002900480156108075780601f106107dc57610100808354040283529160200191610807565b820191906000526020600020905b8154815290600101906020018083116107ea57829003601f168201915b505050505090806001018054600181600116156101000203166002900480601f0160208091040260200160405190810160405280929190818152602001828054600181600116156101000203166002900480156108a55780601f1061087a576101008083540402835291602001916108a5565b820191906000526020600020905b81548152906001019060200180831161088857829003601f168201915b5050505050905082565b60026020528060005260406000206000915054906101000a900473ffffffffffffffffffffffffffffffffffffffff1681565b6003818154811015156108f157fe5b90600052602060002001600091509050806000018054600181600116156101000203166002900480601f0160208091040260200160405190810160405280929190818152602001828054600181600116156101000203166002900480156109995780601f1061096e57610100808354040283529160200191610999565b820191906000526020600020905b81548152906001019060200180831161097c57829003601f168201915b5050505050905081565b6109ab610d41565b6020604051908101604052808381525090506003819080600181540180825580915050906001820390600052602060002001600090919290919091506000820151816000019080519060200190610a03929190610cc1565b505050505050565b60008060048054905011905090565b600581815481101515610a2957fe5b90600052602060002001600091509050806000018054600181600116156101000203166002900480601f016020809104026020016040519081016040528092919081815260200182805460018160011615610100020316600290048015610ad15780601f10610aa657610100808354040283529160200191610ad1565b820191906000526020600020905b815481529060010190602001808311610ab457829003601f168201915b5050505050905081565b610ae3610d55565b600060408051908101604052808581526020018481525091506001600483908060018154018082558091505090600182039060005260206000209060020201600090919290919091506000820151816000019080519060200190610b48929190610cc1565b506020820151816001019080519060200190610b65929190610cc1565b5050500390506000803373ffffffffffffffffffffffffffffffffffffffff1673ffffffffffffffffffffffffffffffffffffffff1681526020019081526020016000208190806001815401808255809150509060018203906000526020600020016000909192909190915055507f7694d63d2563aeac8aad2b0a111ef1ba09b12b9748ef4ae1010584d554b87fea81600033604051808481526020018381526020018273ffffffffffffffffffffffffffffffffffffffff1673ffffffffffffffffffffffffffffffffffffffff168152602001935050505060405180910390a150505050565b600060205281600052604060002081815481101515610c6857fe5b90600052602060002001600091509150505481565b600160205281600052604060002081815481101515610c9857fe5b90600052602060002001600091509150505481565b602060405190810160405280606081525090565b828054600181600116156101000203166002900490600052602060002090601f016020900481019282601f10610d0257805160ff1916838001178555610d30565b82800160010185558215610d30579182015b82811115610d2f578251825591602001919060010190610d14565b5b509050610d3d9190610d6f565b5090565b602060405190810160405280606081525090565b604080519081016040528060608152602001606081525090565b610d9191905b80821115610d8d576000816000905550600101610d75565b5090565b905600a165627a7a723058203e684c7eefa88e516bee2b0a7d18d90017fb05c1234165888d21d4451d896a610029",
  "source": "pragma solidity ^0.4.24;\n\ncontract DappGameCom {\n\n    struct Game {\n        string title;\n    }\n\n    struct Comment {\n        string text;\n    }\n\n    struct Post {\n        string text;\n        string contentHash;\n    }\n\n    mapping (address => uint[]) public postsFromAccount;\n    mapping (uint => uint[]) public commentsFromPost;\n    mapping (uint => address) public commentFromAccount;\n\n    Game[] public games;\n    Post[] public posts;\n    Comment[] public comments;\n\n    event NewPostAdded(uint postId, uint commentId, address owner);\n\n    constructor () public {\n        // created the first post and comment with ID\n        // IDs 0 are invalid\n        newPost(\"\", \"\");\n        newComment(0, \"\");\n        newGame(\"Zombie Battleground\");\n    }\n\n    function hasPosts() public view returns(bool _hasPosts) {\n        _hasPosts = posts.length > 0;\n    }\n\n    function newGame(string _title) public {\n        Game memory game = Game(_title);\n        games.push(game);\n    }\n\n    function newPost(string _text, string _contentHash) public {\n        Post memory post = Post(_text, _contentHash);\n        uint postId = posts.push(post) - 1;\n        postsFromAccount[msg.sender].push(postId);\n        emit NewPostAdded(postId, 0, msg.sender);\n    }\n\n    function newComment(uint _postId, string _text) public {\n        Comment memory comment = Comment(_text);\n        uint commentId = comments.push(comment) - 1;\n        commentsFromPost[_postId].push(commentId);\n        commentFromAccount[commentId] = msg.sender;\n        emit NewPostAdded(_postId, commentId, msg.sender);\n    }\n\n}\n",
  "sourcePath": "/Users/yuuki/dApps/truffle-dappchain-example/contracts/DappsGameCom.sol",
  "compiler": {
    "name": "solc",
    "version": "0.4.24+commit.e67f0147.Emscripten.clang"
  },
  "schemaVersion": "2.0.1",
  "updatedAt": "2018-08-08T14:12:00.716Z"
}