{
  "contractName": "DappGameCom",
  "abi": [
    {
      "constant": true,
      "inputs": [
        {
          "name": "",
          "type": "uint256"
        }
      ],
      "name": "posts",
      "outputs": [
        {
          "name": "text",
          "type": "string"
        },
        {
          "name": "contentHash",
          "type": "string"
        }
      ],
      "payable": false,
      "stateMutability": "view",
      "type": "function"
    },
    {
      "constant": true,
      "inputs": [
        {
          "name": "",
          "type": "uint256"
        }
      ],
      "name": "commentFromAccount",
      "outputs": [
        {
          "name": "",
          "type": "address"
        }
      ],
      "payable": false,
      "stateMutability": "view",
      "type": "function"
    },
    {
      "constant": true,
      "inputs": [
        {
          "name": "",
          "type": "uint256"
        }
      ],
      "name": "games",
      "outputs": [
        {
          "name": "title",
          "type": "string"
        }
      ],
      "payable": false,
      "stateMutability": "view",
      "type": "function"
    },
    {
      "constant": true,
      "inputs": [
        {
          "name": "",
          "type": "uint256"
        }
      ],
      "name": "comments",
      "outputs": [
        {
          "name": "text",
          "type": "string"
        }
      ],
      "payable": false,
      "stateMutability": "view",
      "type": "function"
    },
    {
      "constant": true,
      "inputs": [
        {
          "name": "",
          "type": "uint256"
        },
        {
          "name": "",
          "type": "uint256"
        }
      ],
      "name": "postsFromGame",
      "outputs": [
        {
          "name": "",
          "type": "uint256"
        }
      ],
      "payable": false,
      "stateMutability": "view",
      "type": "function"
    },
    {
      "constant": true,
      "inputs": [
        {
          "name": "",
          "type": "address"
        },
        {
          "name": "",
          "type": "uint256"
        }
      ],
      "name": "postsFromAccount",
      "outputs": [
        {
          "name": "",
          "type": "uint256"
        }
      ],
      "payable": false,
      "stateMutability": "view",
      "type": "function"
    },
    {
      "constant": true,
      "inputs": [
        {
          "name": "",
          "type": "uint256"
        },
        {
          "name": "",
          "type": "uint256"
        }
      ],
      "name": "commentsFromPost",
      "outputs": [
        {
          "name": "",
          "type": "uint256"
        }
      ],
      "payable": false,
      "stateMutability": "view",
      "type": "function"
    },
    {
      "inputs": [],
      "payable": false,
      "stateMutability": "nonpayable",
      "type": "constructor"
    },
    {
      "anonymous": false,
      "inputs": [
        {
          "indexed": false,
          "name": "postId",
          "type": "uint256"
        },
        {
          "indexed": false,
          "name": "commentId",
          "type": "uint256"
        },
        {
          "indexed": false,
          "name": "owner",
          "type": "address"
        }
      ],
      "name": "NewPostAdded",
      "type": "event"
    },
    {
      "constant": true,
      "inputs": [],
      "name": "hasPosts",
      "outputs": [
        {
          "name": "_hasPosts",
          "type": "bool"
        }
      ],
      "payable": false,
      "stateMutability": "view",
      "type": "function"
    },
    {
      "constant": false,
      "inputs": [
        {
          "name": "_title",
          "type": "string"
        }
      ],
      "name": "newGame",
      "outputs": [],
      "payable": false,
      "stateMutability": "nonpayable",
      "type": "function"
    },
    {
      "constant": false,
      "inputs": [
        {
          "name": "_text",
          "type": "string"
        },
        {
          "name": "_gameId",
          "type": "uint256"
        },
        {
          "name": "_contentHash",
          "type": "string"
        }
      ],
      "name": "newPost",
      "outputs": [],
      "payable": false,
      "stateMutability": "nonpayable",
      "type": "function"
    },
    {
      "constant": false,
      "inputs": [
        {
          "name": "_postId",
          "type": "uint256"
        },
        {
          "name": "_text",
          "type": "string"
        }
      ],
      "name": "newComment",
      "outputs": [],
      "payable": false,
      "stateMutability": "nonpayable",
      "type": "function"
    },
    {
      "constant": true,
      "inputs": [
        {
          "name": "_gameId",
          "type": "uint256"
        }
      ],
      "name": "getPostsFromGame",
      "outputs": [
        {
          "name": "",
          "type": "uint256[]"
        }
      ],
      "payable": false,
      "stateMutability": "view",
      "type": "function"
    }
  ],
  "bytecode": "0x60806040523480156200001157600080fd5b506200004f602060405190810160405280600081525060006020604051908101604052806000815250620000d0640100000000026401000000009004565b6200007b6000602060405190810160405280600081525062000286640100000000026401000000009004565b620000ca6040805190810160405280601381526020017f5a6f6d62696520426174746c6567726f756e6400000000000000000000000000815250620003fc640100000000026401000000009004565b62000559565b620000da62000468565b6000604080519081016040528086815260200184815250915060016005839080600181540180825580915050906001820390600052602060002090600202016000909192909190915060008201518160000190805190602001906200014192919062000482565b5060208201518160010190805190602001906200016092919062000482565b505050039050600160003373ffffffffffffffffffffffffffffffffffffffff1673ffffffffffffffffffffffffffffffffffffffff1681526020019081526020016000208190806001815401808255809150509060018203906000526020600020016000909192909190915055506000808581526020019081526020016000208190806001815401808255809150509060018203906000526020600020016000909192909190915055507f7694d63d2563aeac8aad2b0a111ef1ba09b12b9748ef4ae1010584d554b87fea81600033604051808481526020018381526020018273ffffffffffffffffffffffffffffffffffffffff1673ffffffffffffffffffffffffffffffffffffffff168152602001935050505060405180910390a15050505050565b6200029062000509565b600060206040519081016040528084815250915060016006839080600181540180825580915050906001820390600052602060002001600090919290919091506000820151816000019080519060200190620002ee92919062000482565b50505003905060026000858152602001908152602001600020819080600181540180825580915050906001820390600052602060002001600090919290919091505550336003600083815260200190815260200160002060006101000a81548173ffffffffffffffffffffffffffffffffffffffff021916908373ffffffffffffffffffffffffffffffffffffffff1602179055507f7694d63d2563aeac8aad2b0a111ef1ba09b12b9748ef4ae1010584d554b87fea848233604051808481526020018381526020018273ffffffffffffffffffffffffffffffffffffffff1673ffffffffffffffffffffffffffffffffffffffff168152602001935050505060405180910390a150505050565b620004066200051d565b60206040519081016040528083815250905060048190806001815401808255809150509060018203906000526020600020016000909192909190915060008201518160000190805190602001906200046092919062000482565b505050505050565b604080519081016040528060608152602001606081525090565b828054600181600116156101000203166002900490600052602060002090601f016020900481019282601f10620004c557805160ff1916838001178555620004f6565b82800160010185558215620004f6579182015b82811115620004f5578251825591602001919060010190620004d8565b5b50905062000505919062000531565b5090565b602060405190810160405280606081525090565b602060405190810160405280606081525090565b6200055691905b808211156200055257600081600090555060010162000538565b5090565b90565b610f8580620005696000396000f3006080604052600436106100ba576000357c0100000000000000000000000000000000000000000000000000000000900463ffffffff16806309787a2c146100bf5780630b1e7f83146101325780630dd0bfaf1461024457806310fdf92a146102fd578063117a5b901461036a57806348bafd0e146104105780635a9cfac8146104795780638ebb4c15146104a85780639eff2c191461054e578063a6cd8ba814610599578063acdc2cde1461061b578063cd65eabe1461067c575b600080fd5b3480156100cb57600080fd5b5061013060048036038101908080359060200190929190803590602001908201803590602001908080601f01602080910402602001604051908101604052809392919081815260200183838082843782019150505050505091929192905050506106c7565b005b34801561013e57600080fd5b5061015d60048036038101908080359060200190929190505050610839565b604051808060200180602001838103835285818151815260200191508051906020019080838360005b838110156101a1578082015181840152602081019050610186565b50505050905090810190601f1680156101ce5780820380516001836020036101000a031916815260200191505b50838103825284818151815260200191508051906020019080838360005b838110156102075780820151818401526020810190506101ec565b50505050905090810190601f1680156102345780820380516001836020036101000a031916815260200191505b5094505050505060405180910390f35b34801561025057600080fd5b506102fb600480360381019080803590602001908201803590602001908080601f016020809104026020016040519081016040528093929190818152602001838380828437820191505050505050919291929080359060200190929190803590602001908201803590602001908080601f016020809104026020016040519081016040528093929190818152602001838380828437820191505050505050919291929050505061099c565b005b34801561030957600080fd5b5061032860048036038101908080359060200190929190505050610b4c565b604051808273ffffffffffffffffffffffffffffffffffffffff1673ffffffffffffffffffffffffffffffffffffffff16815260200191505060405180910390f35b34801561037657600080fd5b5061039560048036038101908080359060200190929190505050610b7f565b6040518080602001828103825283818151815260200191508051906020019080838360005b838110156103d55780820151818401526020810190506103ba565b50505050905090810190601f1680156104025780820380516001836020036101000a031916815260200191505b509250505060405180910390f35b34801561041c57600080fd5b50610477600480360381019080803590602001908201803590602001908080601f0160208091040260200160405190810160405280939291908181526020018383808284378201915050505050509192919290505050610c40565b005b34801561048557600080fd5b5061048e610ca8565b604051808215151515815260200191505060405180910390f35b3480156104b457600080fd5b506104d360048036038101908080359060200190929190505050610cb7565b6040518080602001828103825283818151815260200191508051906020019080838360005b838110156105135780820151818401526020810190506104f8565b50505050905090810190601f1680156105405780820380516001836020036101000a031916815260200191505b509250505060405180910390f35b34801561055a57600080fd5b506105836004803603810190808035906020019092919080359060200190929190505050610d78565b6040518082815260200191505060405180910390f35b3480156105a557600080fd5b506105c460048036038101908080359060200190929190505050610da8565b6040518080602001828103825283818151815260200191508051906020019060200280838360005b838110156106075780820151818401526020810190506105ec565b505050509050019250505060405180910390f35b34801561062757600080fd5b50610666600480360381019080803573ffffffffffffffffffffffffffffffffffffffff16906020019092919080359060200190929190505050610e12565b6040518082815260200191505060405180910390f35b34801561068857600080fd5b506106b16004803603810190808035906020019092919080359060200190929190505050610e42565b6040518082815260200191505060405180910390f35b6106cf610e72565b60006020604051908101604052808481525091506001600683908060018154018082558091505090600182039060005260206000200160009091929091909150600082015181600001908051906020019061072b929190610e86565b50505003905060026000858152602001908152602001600020819080600181540180825580915050906001820390600052602060002001600090919290919091505550336003600083815260200190815260200160002060006101000a81548173ffffffffffffffffffffffffffffffffffffffff021916908373ffffffffffffffffffffffffffffffffffffffff1602179055507f7694d63d2563aeac8aad2b0a111ef1ba09b12b9748ef4ae1010584d554b87fea848233604051808481526020018381526020018273ffffffffffffffffffffffffffffffffffffffff1673ffffffffffffffffffffffffffffffffffffffff168152602001935050505060405180910390a150505050565b60058181548110151561084857fe5b9060005260206000209060020201600091509050806000018054600181600116156101000203166002900480601f0160208091040260200160405190810160405280929190818152602001828054600181600116156101000203166002900480156108f45780601f106108c9576101008083540402835291602001916108f4565b820191906000526020600020905b8154815290600101906020018083116108d757829003601f168201915b505050505090806001018054600181600116156101000203166002900480601f0160208091040260200160405190810160405280929190818152602001828054600181600116156101000203166002900480156109925780601f1061096757610100808354040283529160200191610992565b820191906000526020600020905b81548152906001019060200180831161097557829003601f168201915b5050505050905082565b6109a4610f06565b600060408051908101604052808681526020018481525091506001600583908060018154018082558091505090600182039060005260206000209060020201600090919290919091506000820151816000019080519060200190610a09929190610e86565b506020820151816001019080519060200190610a26929190610e86565b505050039050600160003373ffffffffffffffffffffffffffffffffffffffff1673ffffffffffffffffffffffffffffffffffffffff1681526020019081526020016000208190806001815401808255809150509060018203906000526020600020016000909192909190915055506000808581526020019081526020016000208190806001815401808255809150509060018203906000526020600020016000909192909190915055507f7694d63d2563aeac8aad2b0a111ef1ba09b12b9748ef4ae1010584d554b87fea81600033604051808481526020018381526020018273ffffffffffffffffffffffffffffffffffffffff1673ffffffffffffffffffffffffffffffffffffffff168152602001935050505060405180910390a15050505050565b60036020528060005260406000206000915054906101000a900473ffffffffffffffffffffffffffffffffffffffff1681565b600481815481101515610b8e57fe5b90600052602060002001600091509050806000018054600181600116156101000203166002900480601f016020809104026020016040519081016040528092919081815260200182805460018160011615610100020316600290048015610c365780601f10610c0b57610100808354040283529160200191610c36565b820191906000526020600020905b815481529060010190602001808311610c1957829003601f168201915b5050505050905081565b610c48610f20565b6020604051908101604052808381525090506004819080600181540180825580915050906001820390600052602060002001600090919290919091506000820151816000019080519060200190610ca0929190610e86565b505050505050565b60008060058054905011905090565b600681815481101515610cc657fe5b90600052602060002001600091509050806000018054600181600116156101000203166002900480601f016020809104026020016040519081016040528092919081815260200182805460018160011615610100020316600290048015610d6e5780601f10610d4357610100808354040283529160200191610d6e565b820191906000526020600020905b815481529060010190602001808311610d5157829003601f168201915b5050505050905081565b600060205281600052604060002081815481101515610d9357fe5b90600052602060002001600091509150505481565b6060600080838152602001908152602001600020805480602002602001604051908101604052809291908181526020018280548015610e0657602002820191906000526020600020905b815481526020019060010190808311610df2575b50505050509050919050565b600160205281600052604060002081815481101515610e2d57fe5b90600052602060002001600091509150505481565b600260205281600052604060002081815481101515610e5d57fe5b90600052602060002001600091509150505481565b602060405190810160405280606081525090565b828054600181600116156101000203166002900490600052602060002090601f016020900481019282601f10610ec757805160ff1916838001178555610ef5565b82800160010185558215610ef5579182015b82811115610ef4578251825591602001919060010190610ed9565b5b509050610f029190610f34565b5090565b604080519081016040528060608152602001606081525090565b602060405190810160405280606081525090565b610f5691905b80821115610f52576000816000905550600101610f3a565b5090565b905600a165627a7a723058208baa01df522f7e67f8d8ce8daf5bb5900c9705e4ed559d48a032074ed0e42c690029",
  "source": "pragma solidity ^0.4.24;\n\ncontract DappGameCom {\n\n    struct Game {\n        string title;\n    }\n\n    struct Comment {\n        string text;\n    }\n\n    struct Post {\n        string text;\n        string contentHash;\n    }\n\n    mapping (uint => uint[]) public postsFromGame;\n    mapping (address => uint[]) public postsFromAccount;\n    mapping (uint => uint[]) public commentsFromPost;\n    mapping (uint => address) public commentFromAccount;\n\n    Game[] public games;\n    Post[] public posts;\n    Comment[] public comments;\n\n    event NewPostAdded(uint postId, uint commentId, address owner);\n\n    constructor () public {\n        // created the first post and comment with ID\n        // IDs 0 are invalid\n        newPost(\"\", 0, \"\");\n        newComment(0, \"\");\n        newGame(\"Zombie Battleground\");\n    }\n\n    function hasPosts() public view returns(bool _hasPosts) {\n        _hasPosts = posts.length > 0;\n    }\n\n    function newGame(string _title) public {\n        Game memory game = Game(_title);\n        games.push(game);\n    }\n\n    function newPost(string _text, uint _gameId, string _contentHash) public {\n        Post memory post = Post(_text, _contentHash);\n        uint postId = posts.push(post) - 1;\n        postsFromAccount[msg.sender].push(postId);\n        postsFromGame[_gameId].push(postId);\n        emit NewPostAdded(postId, 0, msg.sender);\n    }\n\n    function newComment(uint _postId, string _text) public {\n        Comment memory comment = Comment(_text);\n        uint commentId = comments.push(comment) - 1;\n        commentsFromPost[_postId].push(commentId);\n        commentFromAccount[commentId] = msg.sender;\n        emit NewPostAdded(_postId, commentId, msg.sender);\n    }\n\n    function getPostsFromGame(uint _gameId) external view returns (uint[]){\n      return postsFromGame[_gameId];\n    }\n\n}\n",
  "sourcePath": "/Users/yuuki/dApps/loom-hackathon-test/contracts/DappsGameCom.sol",
  "compiler": {
    "name": "solc",
    "version": "0.4.24+commit.e67f0147.Emscripten.clang"
  },
  "schemaVersion": "2.0.1",
  "updatedAt": "2018-08-09T13:57:28.795Z"
}